{
  "_format": "hh-sol-artifact-1",
  "contractName": "DeviceBinding",
  "sourceName": "contracts/DeviceBinding.sol",
  "abi": [
    {
      "inputs": [],
      "stateMutability": "nonpayable",
      "type": "constructor"
    },
    {
      "anonymous": false,
      "inputs": [
        {
          "indexed": true,
          "internalType": "address",
          "name": "_deviceId",
          "type": "address"
        },
        {
          "indexed": true,
          "internalType": "address",
          "name": "_ownerAddress",
          "type": "address"
        }
      ],
      "name": "OwnershipAssigned",
      "type": "event"
    },
    {
      "anonymous": false,
      "inputs": [
        {
          "indexed": true,
          "internalType": "address",
          "name": "_deviceId",
          "type": "address"
        }
      ],
      "name": "OwnershipRenounced",
      "type": "event"
    },
    {
      "anonymous": false,
      "inputs": [
        {
          "indexed": true,
          "internalType": "address",
          "name": "previousOwner",
          "type": "address"
        },
        {
          "indexed": true,
          "internalType": "address",
          "name": "newOwner",
          "type": "address"
        }
      ],
      "name": "OwnershipTransferred",
      "type": "event"
    },
    {
      "inputs": [
        {
          "internalType": "uint256",
          "name": "",
          "type": "uint256"
        }
      ],
      "name": "DeviceIds",
      "outputs": [
        {
          "internalType": "address",
          "name": "",
          "type": "address"
        }
      ],
      "stateMutability": "view",
      "type": "function"
    },
    {
      "inputs": [
        {
          "internalType": "address",
          "name": "",
          "type": "address"
        }
      ],
      "name": "DevicesCount",
      "outputs": [
        {
          "internalType": "uint256",
          "name": "",
          "type": "uint256"
        }
      ],
      "stateMutability": "view",
      "type": "function"
    },
    {
      "inputs": [
        {
          "internalType": "address",
          "name": "",
          "type": "address"
        }
      ],
      "name": "OwnedDevices",
      "outputs": [
        {
          "internalType": "address",
          "name": "ownerAddress",
          "type": "address"
        },
        {
          "internalType": "uint256",
          "name": "arrayIndex",
          "type": "uint256"
        }
      ],
      "stateMutability": "view",
      "type": "function"
    },
    {
      "inputs": [
        {
          "internalType": "address",
          "name": "_deviceId",
          "type": "address"
        },
        {
          "internalType": "address",
          "name": "_ownerAddress",
          "type": "address"
        }
      ],
      "name": "bindDevice",
      "outputs": [
        {
          "internalType": "bool",
          "name": "",
          "type": "bool"
        }
      ],
      "stateMutability": "nonpayable",
      "type": "function"
    },
    {
      "inputs": [
        {
          "internalType": "address",
          "name": "_deviceId",
          "type": "address"
        }
      ],
      "name": "getDeviceOwner",
      "outputs": [
        {
          "internalType": "address",
          "name": "",
          "type": "address"
        }
      ],
      "stateMutability": "view",
      "type": "function"
    },
    {
      "inputs": [],
      "name": "getDevicesCount",
      "outputs": [
        {
          "internalType": "uint256",
          "name": "",
          "type": "uint256"
        }
      ],
      "stateMutability": "view",
      "type": "function"
    },
    {
      "inputs": [
        {
          "internalType": "address",
          "name": "_ownerAddress",
          "type": "address"
        }
      ],
      "name": "getOwnedDevices",
      "outputs": [
        {
          "internalType": "address[]",
          "name": "",
          "type": "address[]"
        }
      ],
      "stateMutability": "view",
      "type": "function"
    },
    {
      "inputs": [],
      "name": "owner",
      "outputs": [
        {
          "internalType": "address",
          "name": "",
          "type": "address"
        }
      ],
      "stateMutability": "view",
      "type": "function"
    },
    {
      "inputs": [],
      "name": "renounceOwnership",
      "outputs": [],
      "stateMutability": "nonpayable",
      "type": "function"
    },
    {
      "inputs": [
        {
          "internalType": "address",
          "name": "newOwner",
          "type": "address"
        }
      ],
      "name": "transferOwnership",
      "outputs": [],
      "stateMutability": "nonpayable",
      "type": "function"
    },
    {
      "inputs": [
        {
          "internalType": "address",
          "name": "_deviceId",
          "type": "address"
        }
      ],
      "name": "unbindDevice",
      "outputs": [
        {
          "internalType": "bool",
          "name": "",
          "type": "bool"
        }
      ],
      "stateMutability": "nonpayable",
      "type": "function"
    }
  ],
  "bytecode": "0x60806040523480156200001157600080fd5b5062000032620000266200008360201b60201c565b6200008b60201b60201c565b6200007d6040518060400160405280602081526020017f4465706c6f79696e672044657669636542696e64696e6720636f6e74726163748152506200014f60201b620009cc1760201c565b620002d9565b600033905090565b60008060009054906101000a900473ffffffffffffffffffffffffffffffffffffffff169050816000806101000a81548173ffffffffffffffffffffffffffffffffffffffff021916908373ffffffffffffffffffffffffffffffffffffffff1602179055508173ffffffffffffffffffffffffffffffffffffffff168173ffffffffffffffffffffffffffffffffffffffff167f8be0079c531659141344cd1fd0a4f28419497f9722a3daafe3b4186f6b6457e060405160405180910390a35050565b620001ef81604051602401620001669190620002b5565b6040516020818303038152906040527f41304fac000000000000000000000000000000000000000000000000000000007bffffffffffffffffffffffffffffffffffffffffffffffffffffffff19166020820180517bffffffffffffffffffffffffffffffffffffffffffffffffffffffff8381831617835250505050620001f260201b60201c565b50565b60008151905060006a636f6e736f6c652e6c6f679050602083016000808483855afa5050505050565b600081519050919050565b600082825260208201905092915050565b60005b83811015620002575780820151818401526020810190506200023a565b60008484015250505050565b6000601f19601f8301169050919050565b600062000281826200021b565b6200028d818562000226565b93506200029f81856020860162000237565b620002aa8162000263565b840191505092915050565b60006020820190508181036000830152620002d1818462000274565b905092915050565b6117bd80620002e96000396000f3fe608060405234801561001057600080fd5b50600436106100a95760003560e01c80638da5cb5b116100715780638da5cb5b146101665780639caf9a13146101845780639d5b8c80146101b4578063d6e0d345146101e4578063dbad5c3514610214578063f2fde38b14610245576100a9565b80630fdc4dc6146100ae578063459b23a4146100de5780636c3a03551461010e578063715018a61461012c578063790d28a314610136575b600080fd5b6100c860048036038101906100c391906110f9565b610261565b6040516100d59190611154565b60405180910390f35b6100f860048036038101906100f3919061116f565b6103aa565b60405161010591906111ab565b60405180910390f35b610116610416565b60405161012391906111df565b60405180910390f35b610134610423565b005b610150600480360381019061014b9190611226565b610437565b60405161015d91906111ab565b60405180910390f35b61016e610476565b60405161017b91906111ab565b60405180910390f35b61019e6004803603810190610199919061116f565b61049f565b6040516101ab9190611311565b60405180910390f35b6101ce60048036038101906101c9919061116f565b610722565b6040516101db91906111df565b60405180910390f35b6101fe60048036038101906101f9919061116f565b61073a565b60405161020b9190611154565b60405180910390f35b61022e6004803603810190610229919061116f565b610905565b60405161023c929190611333565b60405180910390f35b61025f600480360381019061025a919061116f565b610949565b005b600061026b610a65565b600073ffffffffffffffffffffffffffffffffffffffff16600260008573ffffffffffffffffffffffffffffffffffffffff1673ffffffffffffffffffffffffffffffffffffffff16815260200190815260200160002060000160009054906101000a900473ffffffffffffffffffffffffffffffffffffffff1673ffffffffffffffffffffffffffffffffffffffff161461033c576040517f08c379a0000000000000000000000000000000000000000000000000000000008152600401610333906113b9565b60405180910390fd5b6103468383610ae3565b8173ffffffffffffffffffffffffffffffffffffffff168373ffffffffffffffffffffffffffffffffffffffff167f9fd2c28ce9affee8592933156880418279ba95f7c71e344a71d1928a7c98297960405160405180910390a36001905092915050565b6000600260008373ffffffffffffffffffffffffffffffffffffffff1673ffffffffffffffffffffffffffffffffffffffff16815260200190815260200160002060000160009054906101000a900473ffffffffffffffffffffffffffffffffffffffff169050919050565b6000600180549050905090565b61042b610a65565b6104356000610c62565b565b6001818154811061044757600080fd5b906000526020600020016000915054906101000a900473ffffffffffffffffffffffffffffffffffffffff1681565b60008060009054906101000a900473ffffffffffffffffffffffffffffffffffffffff16905090565b60606000600360008473ffffffffffffffffffffffffffffffffffffffff1673ffffffffffffffffffffffffffffffffffffffff1681526020019081526020016000205467ffffffffffffffff8111156104fc576104fb6113d9565b5b60405190808252806020026020018201604052801561052a5781602001602082028036833780820191505090505b5090506000610537611066565b60005b60018054905081101561071657600260006001838154811061055f5761055e611408565b5b9060005260206000200160009054906101000a900473ffffffffffffffffffffffffffffffffffffffff1673ffffffffffffffffffffffffffffffffffffffff1673ffffffffffffffffffffffffffffffffffffffff1681526020019081526020016000206040518060400160405290816000820160009054906101000a900473ffffffffffffffffffffffffffffffffffffffff1673ffffffffffffffffffffffffffffffffffffffff1673ffffffffffffffffffffffffffffffffffffffff16815260200160018201548152505091508573ffffffffffffffffffffffffffffffffffffffff16826000015173ffffffffffffffffffffffffffffffffffffffff1603610703576001818154811061067c5761067b611408565b5b9060005260206000200160009054906101000a900473ffffffffffffffffffffffffffffffffffffffff168484815181106106ba576106b9611408565b5b602002602001019073ffffffffffffffffffffffffffffffffffffffff16908173ffffffffffffffffffffffffffffffffffffffff168152505082806106ff90611466565b9350505b808061070e90611466565b91505061053a565b50829350505050919050565b60036020528060005260406000206000915090505481565b60003373ffffffffffffffffffffffffffffffffffffffff16600260008473ffffffffffffffffffffffffffffffffffffffff1673ffffffffffffffffffffffffffffffffffffffff16815260200190815260200160002060000160009054906101000a900473ffffffffffffffffffffffffffffffffffffffff1673ffffffffffffffffffffffffffffffffffffffff16148061087157503073ffffffffffffffffffffffffffffffffffffffff16638da5cb5b6040518163ffffffff1660e01b8152600401602060405180830381865afa15801561081e573d6000803e3d6000fd5b505050506040513d601f19601f8201168201806040525081019061084291906114c3565b73ffffffffffffffffffffffffffffffffffffffff163373ffffffffffffffffffffffffffffffffffffffff16145b6108b0576040517f08c379a00000000000000000000000000000000000000000000000000000000081526004016108a79061153c565b60405180910390fd5b6108b982610d26565b8173ffffffffffffffffffffffffffffffffffffffff167ff8df31144d9c2f0f6b59d69b8b98abd5459d07f2742c4df920b25aae33c6482060405160405180910390a260019050919050565b60026020528060005260406000206000915090508060000160009054906101000a900473ffffffffffffffffffffffffffffffffffffffff16908060010154905082565b610951610a65565b600073ffffffffffffffffffffffffffffffffffffffff168173ffffffffffffffffffffffffffffffffffffffff16036109c0576040517f08c379a00000000000000000000000000000000000000000000000000000000081526004016109b7906115ce565b60405180910390fd5b6109c981610c62565b50565b610a62816040516024016109e0919061166d565b6040516020818303038152906040527f41304fac000000000000000000000000000000000000000000000000000000007bffffffffffffffffffffffffffffffffffffffffffffffffffffffff19166020820180517bffffffffffffffffffffffffffffffffffffffffffffffffffffffff8381831617835250505050611035565b50565b610a6d61105e565b73ffffffffffffffffffffffffffffffffffffffff16610a8b610476565b73ffffffffffffffffffffffffffffffffffffffff1614610ae1576040517f08c379a0000000000000000000000000000000000000000000000000000000008152600401610ad8906116db565b60405180910390fd5b565b60405180604001604052808273ffffffffffffffffffffffffffffffffffffffff168152602001600180549050815250600260008473ffffffffffffffffffffffffffffffffffffffff1673ffffffffffffffffffffffffffffffffffffffff16815260200190815260200160002060008201518160000160006101000a81548173ffffffffffffffffffffffffffffffffffffffff021916908373ffffffffffffffffffffffffffffffffffffffff160217905550602082015181600101559050506001829080600181540180825580915050600190039060005260206000200160009091909190916101000a81548173ffffffffffffffffffffffffffffffffffffffff021916908373ffffffffffffffffffffffffffffffffffffffff160217905550600360008273ffffffffffffffffffffffffffffffffffffffff1673ffffffffffffffffffffffffffffffffffffffff1681526020019081526020016000206000815480929190610c5990611466565b91905055505050565b60008060009054906101000a900473ffffffffffffffffffffffffffffffffffffffff169050816000806101000a81548173ffffffffffffffffffffffffffffffffffffffff021916908373ffffffffffffffffffffffffffffffffffffffff1602179055508173ffffffffffffffffffffffffffffffffffffffff168173ffffffffffffffffffffffffffffffffffffffff167f8be0079c531659141344cd1fd0a4f28419497f9722a3daafe3b4186f6b6457e060405160405180910390a35050565b6000600260008373ffffffffffffffffffffffffffffffffffffffff1673ffffffffffffffffffffffffffffffffffffffff1681526020019081526020016000206040518060400160405290816000820160009054906101000a900473ffffffffffffffffffffffffffffffffffffffff1673ffffffffffffffffffffffffffffffffffffffff1673ffffffffffffffffffffffffffffffffffffffff168152602001600182015481525050905060006001808080549050610de891906116fb565b81548110610df957610df8611408565b5b9060005260206000200160009054906101000a900473ffffffffffffffffffffffffffffffffffffffff1690508160200151600260008373ffffffffffffffffffffffffffffffffffffffff1673ffffffffffffffffffffffffffffffffffffffff168152602001908152602001600020600101819055506001808080549050610e8391906116fb565b81548110610e9457610e93611408565b5b9060005260206000200160009054906101000a900473ffffffffffffffffffffffffffffffffffffffff166001836020015181548110610ed757610ed6611408565b5b9060005260206000200160006101000a81548173ffffffffffffffffffffffffffffffffffffffff021916908373ffffffffffffffffffffffffffffffffffffffff1602179055506001805480610f3157610f3061172f565b5b6001900381819060005260206000200160006101000a81549073ffffffffffffffffffffffffffffffffffffffff0219169055905560036000836000015173ffffffffffffffffffffffffffffffffffffffff1673ffffffffffffffffffffffffffffffffffffffff1681526020019081526020016000206000815480929190610fba9061175e565b9190505550600260008473ffffffffffffffffffffffffffffffffffffffff1673ffffffffffffffffffffffffffffffffffffffff168152602001908152602001600020600080820160006101000a81549073ffffffffffffffffffffffffffffffffffffffff021916905560018201600090555050505050565b60008151905060006a636f6e736f6c652e6c6f679050602083016000808483855afa5050505050565b600033905090565b6040518060400160405280600073ffffffffffffffffffffffffffffffffffffffff168152602001600081525090565b600080fd5b600073ffffffffffffffffffffffffffffffffffffffff82169050919050565b60006110c68261109b565b9050919050565b6110d6816110bb565b81146110e157600080fd5b50565b6000813590506110f3816110cd565b92915050565b600080604083850312156111105761110f611096565b5b600061111e858286016110e4565b925050602061112f858286016110e4565b9150509250929050565b60008115159050919050565b61114e81611139565b82525050565b60006020820190506111696000830184611145565b92915050565b60006020828403121561118557611184611096565b5b6000611193848285016110e4565b91505092915050565b6111a5816110bb565b82525050565b60006020820190506111c0600083018461119c565b92915050565b6000819050919050565b6111d9816111c6565b82525050565b60006020820190506111f460008301846111d0565b92915050565b611203816111c6565b811461120e57600080fd5b50565b600081359050611220816111fa565b92915050565b60006020828403121561123c5761123b611096565b5b600061124a84828501611211565b91505092915050565b600081519050919050565b600082825260208201905092915050565b6000819050602082019050919050565b611288816110bb565b82525050565b600061129a838361127f565b60208301905092915050565b6000602082019050919050565b60006112be82611253565b6112c8818561125e565b93506112d38361126f565b8060005b838110156113045781516112eb888261128e565b97506112f6836112a6565b9250506001810190506112d7565b5085935050505092915050565b6000602082019050818103600083015261132b81846112b3565b905092915050565b6000604082019050611348600083018561119c565b61135560208301846111d0565b9392505050565b600082825260208201905092915050565b7f6465766963652068617320616c7265616479206265656e20626f756e64000000600082015250565b60006113a3601d8361135c565b91506113ae8261136d565b602082019050919050565b600060208201905081810360008301526113d281611396565b9050919050565b7f4e487b7100000000000000000000000000000000000000000000000000000000600052604160045260246000fd5b7f4e487b7100000000000000000000000000000000000000000000000000000000600052603260045260246000fd5b7f4e487b7100000000000000000000000000000000000000000000000000000000600052601160045260246000fd5b6000611471826111c6565b91507fffffffffffffffffffffffffffffffffffffffffffffffffffffffffffffffff82036114a3576114a2611437565b5b600182019050919050565b6000815190506114bd816110cd565b92915050565b6000602082840312156114d9576114d8611096565b5b60006114e7848285016114ae565b91505092915050565b7f6e6f742074686520646576696365206f776e6572000000000000000000000000600082015250565b600061152660148361135c565b9150611531826114f0565b602082019050919050565b6000602082019050818103600083015261155581611519565b9050919050565b7f4f776e61626c653a206e6577206f776e657220697320746865207a65726f206160008201527f6464726573730000000000000000000000000000000000000000000000000000602082015250565b60006115b860268361135c565b91506115c38261155c565b604082019050919050565b600060208201905081810360008301526115e7816115ab565b9050919050565b600081519050919050565b60005b838110156116175780820151818401526020810190506115fc565b60008484015250505050565b6000601f19601f8301169050919050565b600061163f826115ee565b611649818561135c565b93506116598185602086016115f9565b61166281611623565b840191505092915050565b600060208201905081810360008301526116878184611634565b905092915050565b7f4f776e61626c653a2063616c6c6572206973206e6f7420746865206f776e6572600082015250565b60006116c560208361135c565b91506116d08261168f565b602082019050919050565b600060208201905081810360008301526116f4816116b8565b9050919050565b6000611706826111c6565b9150611711836111c6565b925082820390508181111561172957611728611437565b5b92915050565b7f4e487b7100000000000000000000000000000000000000000000000000000000600052603160045260246000fd5b6000611769826111c6565b91506000820361177c5761177b611437565b5b60018203905091905056fea26469706673582212208a643bd41b57b48fef035acfa318de90dc1abea2df130125cb1ac72dd53f2a8564736f6c63430008110033",
  "linkReferences": {},
  "deployedLinkReferences": {}
}