{"contracts/DevicesRegistry.sol":{"DevicesRegistry":{"abi":[{"inputs":[],"stateMutability":"nonpayable","type":"constructor"},{"anonymous":false,"inputs":[{"indexed":true,"internalType":"deviceidtype","name":"_deviceId","type":"address"}],"name":"DeviceActivated","type":"event"},{"anonymous":false,"inputs":[{"indexed":true,"internalType":"deviceidtype","name":"_deviceId","type":"address"}],"name":"DeviceDeleted","type":"event"},{"anonymous":false,"inputs":[{"indexed":true,"internalType":"deviceidtype","name":"_deviceId","type":"address"}],"name":"DeviceRegistered","type":"event"},{"anonymous":false,"inputs":[{"indexed":true,"internalType":"deviceidtype","name":"_deviceId","type":"address"}],"name":"DeviceSuspended","type":"event"},{"anonymous":false,"inputs":[{"indexed":true,"internalType":"address","name":"previousOwner","type":"address"},{"indexed":true,"internalType":"address","name":"newOwner","type":"address"}],"name":"OwnershipTransferred","type":"event"},{"inputs":[{"internalType":"deviceidtype","name":"","type":"address"}],"name":"AuthorizedDevices","outputs":[{"internalType":"bool","name":"isRegistered","type":"bool"},{"internalType":"bool","name":"isActive","type":"bool"}],"stateMutability":"view","type":"function"},{"inputs":[{"internalType":"deviceidtype","name":"_deviceIdToActivate","type":"address"}],"name":"activateDevice","outputs":[],"stateMutability":"nonpayable","type":"function"},{"inputs":[{"internalType":"deviceidtype","name":"_deviceId","type":"address"}],"name":"isAuthorizedDevice","outputs":[{"internalType":"bool","name":"","type":"bool"}],"stateMutability":"view","type":"function"},{"inputs":[],"name":"owner","outputs":[{"internalType":"address","name":"","type":"address"}],"stateMutability":"view","type":"function"},{"inputs":[{"internalType":"deviceidtype","name":"_newDeviceId","type":"address"}],"name":"registerDevice","outputs":[],"stateMutability":"nonpayable","type":"function"},{"inputs":[{"internalType":"deviceidtype","name":"_deviceIdToRemove","type":"address"}],"name":"removeDevice","outputs":[],"stateMutability":"nonpayable","type":"function"},{"inputs":[],"name":"renounceOwnership","outputs":[],"stateMutability":"nonpayable","type":"function"},{"inputs":[{"internalType":"deviceidtype","name":"_deviceIdToSuspend","type":"address"}],"name":"suspendDevice","outputs":[],"stateMutability":"nonpayable","type":"function"},{"inputs":[{"internalType":"address","name":"newOwner","type":"address"}],"name":"transferOwnership","outputs":[],"stateMutability":"nonpayable","type":"function"}],"evm":{"bytecode":{"linkReferences":{},"object":"608060405234801561001057600080fd5b5061002d61002261003260201b60201c565b61003a60201b60201c565b6100fe565b600033905090565b60008060009054906101000a900473ffffffffffffffffffffffffffffffffffffffff169050816000806101000a81548173ffffffffffffffffffffffffffffffffffffffff021916908373ffffffffffffffffffffffffffffffffffffffff1602179055508173ffffffffffffffffffffffffffffffffffffffff168173ffffffffffffffffffffffffffffffffffffffff167f8be0079c531659141344cd1fd0a4f28419497f9722a3daafe3b4186f6b6457e060405160405180910390a35050565b610fe58061010d6000396000f3fe608060405234801561001057600080fd5b50600436106100935760003560e01c80638da5cb5b116100665780638da5cb5b146100f6578063a6fe66de14610114578063c9fd65c514610144578063e34b167014610160578063f2fde38b1461019157610093565b8063127157c3146100985780631f7b6324146100b45780636dc7b9a5146100d0578063715018a6146100ec575b600080fd5b6100b260048036038101906100ad9190610be1565b6101ad565b005b6100ce60048036038101906100c99190610be1565b610378565b005b6100ea60048036038101906100e59190610be1565b6104c1565b005b6100f461063e565b005b6100fe610652565b60405161010b9190610c1d565b60405180910390f35b61012e60048036038101906101299190610be1565b61067b565b60405161013b9190610c53565b60405180910390f35b61015e60048036038101906101599190610be1565b6107a8565b005b61017a60048036038101906101759190610be1565b610973565b604051610188929190610c6e565b60405180910390f35b6101ab60048036038101906101a69190610cc3565b6109b1565b005b6101b5610a34565b80600160008273ffffffffffffffffffffffffffffffffffffffff1673ffffffffffffffffffffffffffffffffffffffff16815260200190815260200160002060000160009054906101000a900460ff16610245576040517f08c379a000000000000000000000000000000000000000000000000000000000815260040161023c90610d4d565b60405180910390fd5b81600160008273ffffffffffffffffffffffffffffffffffffffff1673ffffffffffffffffffffffffffffffffffffffff16815260200190815260200160002060000160019054906101000a900460ff16156102d6576040517f08c379a00000000000000000000000000000000000000000000000000000000081526004016102cd90610db9565b60405180910390fd5b60018060008573ffffffffffffffffffffffffffffffffffffffff1673ffffffffffffffffffffffffffffffffffffffff16815260200190815260200160002060000160016101000a81548160ff0219169083151502179055508273ffffffffffffffffffffffffffffffffffffffff167f6e6ce1da269ab1f571a737cdc56e1d5ffad073ff99aa5925df6d9d972fb2b3d460405160405180910390a2505050565b610380610a34565b80600160008273ffffffffffffffffffffffffffffffffffffffff1673ffffffffffffffffffffffffffffffffffffffff16815260200190815260200160002060000160009054906101000a900460ff16610410576040517f08c379a000000000000000000000000000000000000000000000000000000000815260040161040790610d4d565b60405180910390fd5b600160008373ffffffffffffffffffffffffffffffffffffffff1673ffffffffffffffffffffffffffffffffffffffff168152602001908152602001600020600080820160006101000a81549060ff02191690556000820160016101000a81549060ff021916905550508173ffffffffffffffffffffffffffffffffffffffff167fbc120d0a6994481e0bbe15102da86b4b9022da8f1c61b652302a22a4d34c3b4060405160405180910390a25050565b6104c9610a34565b80600160008273ffffffffffffffffffffffffffffffffffffffff1673ffffffffffffffffffffffffffffffffffffffff16815260200190815260200160002060000160009054906101000a900460ff161561055a576040517f08c379a000000000000000000000000000000000000000000000000000000000815260040161055190610e25565b60405180910390fd5b604051806040016040528060011515815260200160011515815250600160008473ffffffffffffffffffffffffffffffffffffffff1673ffffffffffffffffffffffffffffffffffffffff16815260200190815260200160002060008201518160000160006101000a81548160ff02191690831515021790555060208201518160000160016101000a81548160ff0219169083151502179055509050508173ffffffffffffffffffffffffffffffffffffffff167f05d7f0c690676ba31675b45bcdb9ff4c34bb10744ec89d329eacd93c79ecc02960405160405180910390a25050565b610646610a34565b6106506000610ab2565b565b60008060009054906101000a900473ffffffffffffffffffffffffffffffffffffffff16905090565b600081600160008273ffffffffffffffffffffffffffffffffffffffff1673ffffffffffffffffffffffffffffffffffffffff16815260200190815260200160002060000160009054906101000a900460ff1661070d576040517f08c379a000000000000000000000000000000000000000000000000000000000815260040161070490610d4d565b60405180910390fd5b82600160008273ffffffffffffffffffffffffffffffffffffffff1673ffffffffffffffffffffffffffffffffffffffff16815260200190815260200160002060000160019054906101000a900460ff1661079d576040517f08c379a000000000000000000000000000000000000000000000000000000000815260040161079490610e91565b60405180910390fd5b600192505050919050565b6107b0610a34565b80600160008273ffffffffffffffffffffffffffffffffffffffff1673ffffffffffffffffffffffffffffffffffffffff16815260200190815260200160002060000160009054906101000a900460ff16610840576040517f08c379a000000000000000000000000000000000000000000000000000000000815260040161083790610d4d565b60405180910390fd5b81600160008273ffffffffffffffffffffffffffffffffffffffff1673ffffffffffffffffffffffffffffffffffffffff16815260200190815260200160002060000160019054906101000a900460ff166108d0576040517f08c379a00000000000000000000000000000000000000000000000000000000081526004016108c790610e91565b60405180910390fd5b6000600160008573ffffffffffffffffffffffffffffffffffffffff1673ffffffffffffffffffffffffffffffffffffffff16815260200190815260200160002060000160016101000a81548160ff0219169083151502179055508273ffffffffffffffffffffffffffffffffffffffff167f9fe2aea0a7bf9e602e4622d5ab172a7e5c371ad8f238ff80305cfb08e3d0073660405160405180910390a2505050565b60016020528060005260406000206000915090508060000160009054906101000a900460ff16908060000160019054906101000a900460ff16905082565b6109b9610a34565b600073ffffffffffffffffffffffffffffffffffffffff168173ffffffffffffffffffffffffffffffffffffffff1603610a28576040517f08c379a0000000000000000000000000000000000000000000000000000000008152600401610a1f90610f23565b60405180910390fd5b610a3181610ab2565b50565b610a3c610b76565b73ffffffffffffffffffffffffffffffffffffffff16610a5a610652565b73ffffffffffffffffffffffffffffffffffffffff1614610ab0576040517f08c379a0000000000000000000000000000000000000000000000000000000008152600401610aa790610f8f565b60405180910390fd5b565b60008060009054906101000a900473ffffffffffffffffffffffffffffffffffffffff169050816000806101000a81548173ffffffffffffffffffffffffffffffffffffffff021916908373ffffffffffffffffffffffffffffffffffffffff1602179055508173ffffffffffffffffffffffffffffffffffffffff168173ffffffffffffffffffffffffffffffffffffffff167f8be0079c531659141344cd1fd0a4f28419497f9722a3daafe3b4186f6b6457e060405160405180910390a35050565b600033905090565b600080fd5b600073ffffffffffffffffffffffffffffffffffffffff82169050919050565b6000610bae82610b83565b9050919050565b610bbe81610ba3565b8114610bc957600080fd5b50565b600081359050610bdb81610bb5565b92915050565b600060208284031215610bf757610bf6610b7e565b5b6000610c0584828501610bcc565b91505092915050565b610c1781610ba3565b82525050565b6000602082019050610c326000830184610c0e565b92915050565b60008115159050919050565b610c4d81610c38565b82525050565b6000602082019050610c686000830184610c44565b92915050565b6000604082019050610c836000830185610c44565b610c906020830184610c44565b9392505050565b610ca081610ba3565b8114610cab57600080fd5b50565b600081359050610cbd81610c97565b92915050565b600060208284031215610cd957610cd8610b7e565b5b6000610ce784828501610cae565b91505092915050565b600082825260208201905092915050565b7f4461746120536f75726365206973206e6f742072656769737465726564000000600082015250565b6000610d37601d83610cf0565b9150610d4282610d01565b602082019050919050565b60006020820190508181036000830152610d6681610d2a565b9050919050565b7f4461746120536f75726365206973206163746976650000000000000000000000600082015250565b6000610da3601583610cf0565b9150610dae82610d6d565b602082019050919050565b60006020820190508181036000830152610dd281610d96565b9050919050565b7f4461746120536f7572636520616c726561647920726567697374657265640000600082015250565b6000610e0f601e83610cf0565b9150610e1a82610dd9565b602082019050919050565b60006020820190508181036000830152610e3e81610e02565b9050919050565b7f4461746120536f757263652069732073757370656e6465640000000000000000600082015250565b6000610e7b601883610cf0565b9150610e8682610e45565b602082019050919050565b60006020820190508181036000830152610eaa81610e6e565b9050919050565b7f4f776e61626c653a206e6577206f776e657220697320746865207a65726f206160008201527f6464726573730000000000000000000000000000000000000000000000000000602082015250565b6000610f0d602683610cf0565b9150610f1882610eb1565b604082019050919050565b60006020820190508181036000830152610f3c81610f00565b9050919050565b7f4f776e61626c653a2063616c6c6572206973206e6f7420746865206f776e6572600082015250565b6000610f79602083610cf0565b9150610f8482610f43565b602082019050919050565b60006020820190508181036000830152610fa881610f6c565b905091905056fea2646970667358221220f7f1e454430104878c6a53c428632613526e009092344eb7275453b305f39b9c64736f6c63430008110033","opcodes":"PUSH1 0x80 PUSH1 0x40 MSTORE CALLVALUE DUP1 ISZERO PUSH2 0x10 JUMPI PUSH1 0x0 DUP1 REVERT JUMPDEST POP PUSH2 0x2D PUSH2 0x22 PUSH2 0x32 PUSH1 0x20 SHL PUSH1 0x20 SHR JUMP JUMPDEST PUSH2 0x3A PUSH1 0x20 SHL PUSH1 0x20 SHR JUMP JUMPDEST PUSH2 0xFE JUMP JUMPDEST PUSH1 0x0 CALLER SWAP1 POP SWAP1 JUMP JUMPDEST PUSH1 0x0 DUP1 PUSH1 0x0 SWAP1 SLOAD SWAP1 PUSH2 0x100 EXP SWAP1 DIV PUSH20 0xFFFFFFFFFFFFFFFFFFFFFFFFFFFFFFFFFFFFFFFF AND SWAP1 POP DUP2 PUSH1 0x0 DUP1 PUSH2 0x100 EXP DUP2 SLOAD DUP2 PUSH20 0xFFFFFFFFFFFFFFFFFFFFFFFFFFFFFFFFFFFFFFFF MUL NOT AND SWAP1 DUP4 PUSH20 0xFFFFFFFFFFFFFFFFFFFFFFFFFFFFFFFFFFFFFFFF AND MUL OR SWAP1 SSTORE POP DUP2 PUSH20 0xFFFFFFFFFFFFFFFFFFFFFFFFFFFFFFFFFFFFFFFF AND DUP2 PUSH20 0xFFFFFFFFFFFFFFFFFFFFFFFFFFFFFFFFFFFFFFFF AND PUSH32 0x8BE0079C531659141344CD1FD0A4F28419497F9722A3DAAFE3B4186F6B6457E0 PUSH1 0x40 MLOAD PUSH1 0x40 MLOAD DUP1 SWAP2 SUB SWAP1 LOG3 POP POP JUMP JUMPDEST PUSH2 0xFE5 DUP1 PUSH2 0x10D PUSH1 0x0 CODECOPY PUSH1 0x0 RETURN INVALID PUSH1 0x80 PUSH1 0x40 MSTORE CALLVALUE DUP1 ISZERO PUSH2 0x10 JUMPI PUSH1 0x0 DUP1 REVERT JUMPDEST POP PUSH1 0x4 CALLDATASIZE LT PUSH2 0x93 JUMPI PUSH1 0x0 CALLDATALOAD PUSH1 0xE0 SHR DUP1 PUSH4 0x8DA5CB5B GT PUSH2 0x66 JUMPI DUP1 PUSH4 0x8DA5CB5B EQ PUSH2 0xF6 JUMPI DUP1 PUSH4 0xA6FE66DE EQ PUSH2 0x114 JUMPI DUP1 PUSH4 0xC9FD65C5 EQ PUSH2 0x144 JUMPI DUP1 PUSH4 0xE34B1670 EQ PUSH2 0x160 JUMPI DUP1 PUSH4 0xF2FDE38B EQ PUSH2 0x191 JUMPI PUSH2 0x93 JUMP JUMPDEST DUP1 PUSH4 0x127157C3 EQ PUSH2 0x98 JUMPI DUP1 PUSH4 0x1F7B6324 EQ PUSH2 0xB4 JUMPI DUP1 PUSH4 0x6DC7B9A5 EQ PUSH2 0xD0 JUMPI DUP1 PUSH4 0x715018A6 EQ PUSH2 0xEC JUMPI JUMPDEST PUSH1 0x0 DUP1 REVERT JUMPDEST PUSH2 0xB2 PUSH1 0x4 DUP1 CALLDATASIZE SUB DUP2 ADD SWAP1 PUSH2 0xAD SWAP2 SWAP1 PUSH2 0xBE1 JUMP JUMPDEST PUSH2 0x1AD JUMP JUMPDEST STOP JUMPDEST PUSH2 0xCE PUSH1 0x4 DUP1 CALLDATASIZE SUB DUP2 ADD SWAP1 PUSH2 0xC9 SWAP2 SWAP1 PUSH2 0xBE1 JUMP JUMPDEST PUSH2 0x378 JUMP JUMPDEST STOP JUMPDEST PUSH2 0xEA PUSH1 0x4 DUP1 CALLDATASIZE SUB DUP2 ADD SWAP1 PUSH2 0xE5 SWAP2 SWAP1 PUSH2 0xBE1 JUMP JUMPDEST PUSH2 0x4C1 JUMP JUMPDEST STOP JUMPDEST PUSH2 0xF4 PUSH2 0x63E JUMP JUMPDEST STOP JUMPDEST PUSH2 0xFE PUSH2 0x652 JUMP JUMPDEST PUSH1 0x40 MLOAD PUSH2 0x10B SWAP2 SWAP1 PUSH2 0xC1D JUMP JUMPDEST PUSH1 0x40 MLOAD DUP1 SWAP2 SUB SWAP1 RETURN JUMPDEST PUSH2 0x12E PUSH1 0x4 DUP1 CALLDATASIZE SUB DUP2 ADD SWAP1 PUSH2 0x129 SWAP2 SWAP1 PUSH2 0xBE1 JUMP JUMPDEST PUSH2 0x67B JUMP JUMPDEST PUSH1 0x40 MLOAD PUSH2 0x13B SWAP2 SWAP1 PUSH2 0xC53 JUMP JUMPDEST PUSH1 0x40 MLOAD DUP1 SWAP2 SUB SWAP1 RETURN JUMPDEST PUSH2 0x15E PUSH1 0x4 DUP1 CALLDATASIZE SUB DUP2 ADD SWAP1 PUSH2 0x159 SWAP2 SWAP1 PUSH2 0xBE1 JUMP JUMPDEST PUSH2 0x7A8 JUMP JUMPDEST STOP JUMPDEST PUSH2 0x17A PUSH1 0x4 DUP1 CALLDATASIZE SUB DUP2 ADD SWAP1 PUSH2 0x175 SWAP2 SWAP1 PUSH2 0xBE1 JUMP JUMPDEST PUSH2 0x973 JUMP JUMPDEST PUSH1 0x40 MLOAD PUSH2 0x188 SWAP3 SWAP2 SWAP1 PUSH2 0xC6E JUMP JUMPDEST PUSH1 0x40 MLOAD DUP1 SWAP2 SUB SWAP1 RETURN JUMPDEST PUSH2 0x1AB PUSH1 0x4 DUP1 CALLDATASIZE SUB DUP2 ADD SWAP1 PUSH2 0x1A6 SWAP2 SWAP1 PUSH2 0xCC3 JUMP JUMPDEST PUSH2 0x9B1 JUMP JUMPDEST STOP JUMPDEST PUSH2 0x1B5 PUSH2 0xA34 JUMP JUMPDEST DUP1 PUSH1 0x1 PUSH1 0x0 DUP3 PUSH20 0xFFFFFFFFFFFFFFFFFFFFFFFFFFFFFFFFFFFFFFFF AND PUSH20 0xFFFFFFFFFFFFFFFFFFFFFFFFFFFFFFFFFFFFFFFF AND DUP2 MSTORE PUSH1 0x20 ADD SWAP1 DUP2 MSTORE PUSH1 0x20 ADD PUSH1 0x0 KECCAK256 PUSH1 0x0 ADD PUSH1 0x0 SWAP1 SLOAD SWAP1 PUSH2 0x100 EXP SWAP1 DIV PUSH1 0xFF AND PUSH2 0x245 JUMPI PUSH1 0x40 MLOAD PUSH32 0x8C379A000000000000000000000000000000000000000000000000000000000 DUP2 MSTORE PUSH1 0x4 ADD PUSH2 0x23C SWAP1 PUSH2 0xD4D JUMP JUMPDEST PUSH1 0x40 MLOAD DUP1 SWAP2 SUB SWAP1 REVERT JUMPDEST DUP2 PUSH1 0x1 PUSH1 0x0 DUP3 PUSH20 0xFFFFFFFFFFFFFFFFFFFFFFFFFFFFFFFFFFFFFFFF AND PUSH20 0xFFFFFFFFFFFFFFFFFFFFFFFFFFFFFFFFFFFFFFFF AND DUP2 MSTORE PUSH1 0x20 ADD SWAP1 DUP2 MSTORE PUSH1 0x20 ADD PUSH1 0x0 KECCAK256 PUSH1 0x0 ADD PUSH1 0x1 SWAP1 SLOAD SWAP1 PUSH2 0x100 EXP SWAP1 DIV PUSH1 0xFF AND ISZERO PUSH2 0x2D6 JUMPI PUSH1 0x40 MLOAD PUSH32 0x8C379A000000000000000000000000000000000000000000000000000000000 DUP2 MSTORE PUSH1 0x4 ADD PUSH2 0x2CD SWAP1 PUSH2 0xDB9 JUMP JUMPDEST PUSH1 0x40 MLOAD DUP1 SWAP2 SUB SWAP1 REVERT JUMPDEST PUSH1 0x1 DUP1 PUSH1 0x0 DUP6 PUSH20 0xFFFFFFFFFFFFFFFFFFFFFFFFFFFFFFFFFFFFFFFF AND PUSH20 0xFFFFFFFFFFFFFFFFFFFFFFFFFFFFFFFFFFFFFFFF AND DUP2 MSTORE PUSH1 0x20 ADD SWAP1 DUP2 MSTORE PUSH1 0x20 ADD PUSH1 0x0 KECCAK256 PUSH1 0x0 ADD PUSH1 0x1 PUSH2 0x100 EXP DUP2 SLOAD DUP2 PUSH1 0xFF MUL NOT AND SWAP1 DUP4 ISZERO ISZERO MUL OR SWAP1 SSTORE POP DUP3 PUSH20 0xFFFFFFFFFFFFFFFFFFFFFFFFFFFFFFFFFFFFFFFF AND PUSH32 0x6E6CE1DA269AB1F571A737CDC56E1D5FFAD073FF99AA5925DF6D9D972FB2B3D4 PUSH1 0x40 MLOAD PUSH1 0x40 MLOAD DUP1 SWAP2 SUB SWAP1 LOG2 POP POP POP JUMP JUMPDEST PUSH2 0x380 PUSH2 0xA34 JUMP JUMPDEST DUP1 PUSH1 0x1 PUSH1 0x0 DUP3 PUSH20 0xFFFFFFFFFFFFFFFFFFFFFFFFFFFFFFFFFFFFFFFF AND PUSH20 0xFFFFFFFFFFFFFFFFFFFFFFFFFFFFFFFFFFFFFFFF AND DUP2 MSTORE PUSH1 0x20 ADD SWAP1 DUP2 MSTORE PUSH1 0x20 ADD PUSH1 0x0 KECCAK256 PUSH1 0x0 ADD PUSH1 0x0 SWAP1 SLOAD SWAP1 PUSH2 0x100 EXP SWAP1 DIV PUSH1 0xFF AND PUSH2 0x410 JUMPI PUSH1 0x40 MLOAD PUSH32 0x8C379A000000000000000000000000000000000000000000000000000000000 DUP2 MSTORE PUSH1 0x4 ADD PUSH2 0x407 SWAP1 PUSH2 0xD4D JUMP JUMPDEST PUSH1 0x40 MLOAD DUP1 SWAP2 SUB SWAP1 REVERT JUMPDEST PUSH1 0x1 PUSH1 0x0 DUP4 PUSH20 0xFFFFFFFFFFFFFFFFFFFFFFFFFFFFFFFFFFFFFFFF AND PUSH20 0xFFFFFFFFFFFFFFFFFFFFFFFFFFFFFFFFFFFFFFFF AND DUP2 MSTORE PUSH1 0x20 ADD SWAP1 DUP2 MSTORE PUSH1 0x20 ADD PUSH1 0x0 KECCAK256 PUSH1 0x0 DUP1 DUP3 ADD PUSH1 0x0 PUSH2 0x100 EXP DUP2 SLOAD SWAP1 PUSH1 0xFF MUL NOT AND SWAP1 SSTORE PUSH1 0x0 DUP3 ADD PUSH1 0x1 PUSH2 0x100 EXP DUP2 SLOAD SWAP1 PUSH1 0xFF MUL NOT AND SWAP1 SSTORE POP POP DUP2 PUSH20 0xFFFFFFFFFFFFFFFFFFFFFFFFFFFFFFFFFFFFFFFF AND PUSH32 0xBC120D0A6994481E0BBE15102DA86B4B9022DA8F1C61B652302A22A4D34C3B40 PUSH1 0x40 MLOAD PUSH1 0x40 MLOAD DUP1 SWAP2 SUB SWAP1 LOG2 POP POP JUMP JUMPDEST PUSH2 0x4C9 PUSH2 0xA34 JUMP JUMPDEST DUP1 PUSH1 0x1 PUSH1 0x0 DUP3 PUSH20 0xFFFFFFFFFFFFFFFFFFFFFFFFFFFFFFFFFFFFFFFF AND PUSH20 0xFFFFFFFFFFFFFFFFFFFFFFFFFFFFFFFFFFFFFFFF AND DUP2 MSTORE PUSH1 0x20 ADD SWAP1 DUP2 MSTORE PUSH1 0x20 ADD PUSH1 0x0 KECCAK256 PUSH1 0x0 ADD PUSH1 0x0 SWAP1 SLOAD SWAP1 PUSH2 0x100 EXP SWAP1 DIV PUSH1 0xFF AND ISZERO PUSH2 0x55A JUMPI PUSH1 0x40 MLOAD PUSH32 0x8C379A000000000000000000000000000000000000000000000000000000000 DUP2 MSTORE PUSH1 0x4 ADD PUSH2 0x551 SWAP1 PUSH2 0xE25 JUMP JUMPDEST PUSH1 0x40 MLOAD DUP1 SWAP2 SUB SWAP1 REVERT JUMPDEST PUSH1 0x40 MLOAD DUP1 PUSH1 0x40 ADD PUSH1 0x40 MSTORE DUP1 PUSH1 0x1 ISZERO ISZERO DUP2 MSTORE PUSH1 0x20 ADD PUSH1 0x1 ISZERO ISZERO DUP2 MSTORE POP PUSH1 0x1 PUSH1 0x0 DUP5 PUSH20 0xFFFFFFFFFFFFFFFFFFFFFFFFFFFFFFFFFFFFFFFF AND PUSH20 0xFFFFFFFFFFFFFFFFFFFFFFFFFFFFFFFFFFFFFFFF AND DUP2 MSTORE PUSH1 0x20 ADD SWAP1 DUP2 MSTORE PUSH1 0x20 ADD PUSH1 0x0 KECCAK256 PUSH1 0x0 DUP3 ADD MLOAD DUP2 PUSH1 0x0 ADD PUSH1 0x0 PUSH2 0x100 EXP DUP2 SLOAD DUP2 PUSH1 0xFF MUL NOT AND SWAP1 DUP4 ISZERO ISZERO MUL OR SWAP1 SSTORE POP PUSH1 0x20 DUP3 ADD MLOAD DUP2 PUSH1 0x0 ADD PUSH1 0x1 PUSH2 0x100 EXP DUP2 SLOAD DUP2 PUSH1 0xFF MUL NOT AND SWAP1 DUP4 ISZERO ISZERO MUL OR SWAP1 SSTORE POP SWAP1 POP POP DUP2 PUSH20 0xFFFFFFFFFFFFFFFFFFFFFFFFFFFFFFFFFFFFFFFF AND PUSH32 0x5D7F0C690676BA31675B45BCDB9FF4C34BB10744EC89D329EACD93C79ECC029 PUSH1 0x40 MLOAD PUSH1 0x40 MLOAD DUP1 SWAP2 SUB SWAP1 LOG2 POP POP JUMP JUMPDEST PUSH2 0x646 PUSH2 0xA34 JUMP JUMPDEST PUSH2 0x650 PUSH1 0x0 PUSH2 0xAB2 JUMP JUMPDEST JUMP JUMPDEST PUSH1 0x0 DUP1 PUSH1 0x0 SWAP1 SLOAD SWAP1 PUSH2 0x100 EXP SWAP1 DIV PUSH20 0xFFFFFFFFFFFFFFFFFFFFFFFFFFFFFFFFFFFFFFFF AND SWAP1 POP SWAP1 JUMP JUMPDEST PUSH1 0x0 DUP2 PUSH1 0x1 PUSH1 0x0 DUP3 PUSH20 0xFFFFFFFFFFFFFFFFFFFFFFFFFFFFFFFFFFFFFFFF AND PUSH20 0xFFFFFFFFFFFFFFFFFFFFFFFFFFFFFFFFFFFFFFFF AND DUP2 MSTORE PUSH1 0x20 ADD SWAP1 DUP2 MSTORE PUSH1 0x20 ADD PUSH1 0x0 KECCAK256 PUSH1 0x0 ADD PUSH1 0x0 SWAP1 SLOAD SWAP1 PUSH2 0x100 EXP SWAP1 DIV PUSH1 0xFF AND PUSH2 0x70D JUMPI PUSH1 0x40 MLOAD PUSH32 0x8C379A000000000000000000000000000000000000000000000000000000000 DUP2 MSTORE PUSH1 0x4 ADD PUSH2 0x704 SWAP1 PUSH2 0xD4D JUMP JUMPDEST PUSH1 0x40 MLOAD DUP1 SWAP2 SUB SWAP1 REVERT JUMPDEST DUP3 PUSH1 0x1 PUSH1 0x0 DUP3 PUSH20 0xFFFFFFFFFFFFFFFFFFFFFFFFFFFFFFFFFFFFFFFF AND PUSH20 0xFFFFFFFFFFFFFFFFFFFFFFFFFFFFFFFFFFFFFFFF AND DUP2 MSTORE PUSH1 0x20 ADD SWAP1 DUP2 MSTORE PUSH1 0x20 ADD PUSH1 0x0 KECCAK256 PUSH1 0x0 ADD PUSH1 0x1 SWAP1 SLOAD SWAP1 PUSH2 0x100 EXP SWAP1 DIV PUSH1 0xFF AND PUSH2 0x79D JUMPI PUSH1 0x40 MLOAD PUSH32 0x8C379A000000000000000000000000000000000000000000000000000000000 DUP2 MSTORE PUSH1 0x4 ADD PUSH2 0x794 SWAP1 PUSH2 0xE91 JUMP JUMPDEST PUSH1 0x40 MLOAD DUP1 SWAP2 SUB SWAP1 REVERT JUMPDEST PUSH1 0x1 SWAP3 POP POP POP SWAP2 SWAP1 POP JUMP JUMPDEST PUSH2 0x7B0 PUSH2 0xA34 JUMP JUMPDEST DUP1 PUSH1 0x1 PUSH1 0x0 DUP3 PUSH20 0xFFFFFFFFFFFFFFFFFFFFFFFFFFFFFFFFFFFFFFFF AND PUSH20 0xFFFFFFFFFFFFFFFFFFFFFFFFFFFFFFFFFFFFFFFF AND DUP2 MSTORE PUSH1 0x20 ADD SWAP1 DUP2 MSTORE PUSH1 0x20 ADD PUSH1 0x0 KECCAK256 PUSH1 0x0 ADD PUSH1 0x0 SWAP1 SLOAD SWAP1 PUSH2 0x100 EXP SWAP1 DIV PUSH1 0xFF AND PUSH2 0x840 JUMPI PUSH1 0x40 MLOAD PUSH32 0x8C379A000000000000000000000000000000000000000000000000000000000 DUP2 MSTORE PUSH1 0x4 ADD PUSH2 0x837 SWAP1 PUSH2 0xD4D JUMP JUMPDEST PUSH1 0x40 MLOAD DUP1 SWAP2 SUB SWAP1 REVERT JUMPDEST DUP2 PUSH1 0x1 PUSH1 0x0 DUP3 PUSH20 0xFFFFFFFFFFFFFFFFFFFFFFFFFFFFFFFFFFFFFFFF AND PUSH20 0xFFFFFFFFFFFFFFFFFFFFFFFFFFFFFFFFFFFFFFFF AND DUP2 MSTORE PUSH1 0x20 ADD SWAP1 DUP2 MSTORE PUSH1 0x20 ADD PUSH1 0x0 KECCAK256 PUSH1 0x0 ADD PUSH1 0x1 SWAP1 SLOAD SWAP1 PUSH2 0x100 EXP SWAP1 DIV PUSH1 0xFF AND PUSH2 0x8D0 JUMPI PUSH1 0x40 MLOAD PUSH32 0x8C379A000000000000000000000000000000000000000000000000000000000 DUP2 MSTORE PUSH1 0x4 ADD PUSH2 0x8C7 SWAP1 PUSH2 0xE91 JUMP JUMPDEST PUSH1 0x40 MLOAD DUP1 SWAP2 SUB SWAP1 REVERT JUMPDEST PUSH1 0x0 PUSH1 0x1 PUSH1 0x0 DUP6 PUSH20 0xFFFFFFFFFFFFFFFFFFFFFFFFFFFFFFFFFFFFFFFF AND PUSH20 0xFFFFFFFFFFFFFFFFFFFFFFFFFFFFFFFFFFFFFFFF AND DUP2 MSTORE PUSH1 0x20 ADD SWAP1 DUP2 MSTORE PUSH1 0x20 ADD PUSH1 0x0 KECCAK256 PUSH1 0x0 ADD PUSH1 0x1 PUSH2 0x100 EXP DUP2 SLOAD DUP2 PUSH1 0xFF MUL NOT AND SWAP1 DUP4 ISZERO ISZERO MUL OR SWAP1 SSTORE POP DUP3 PUSH20 0xFFFFFFFFFFFFFFFFFFFFFFFFFFFFFFFFFFFFFFFF AND PUSH32 0x9FE2AEA0A7BF9E602E4622D5AB172A7E5C371AD8F238FF80305CFB08E3D00736 PUSH1 0x40 MLOAD PUSH1 0x40 MLOAD DUP1 SWAP2 SUB SWAP1 LOG2 POP POP POP JUMP JUMPDEST PUSH1 0x1 PUSH1 0x20 MSTORE DUP1 PUSH1 0x0 MSTORE PUSH1 0x40 PUSH1 0x0 KECCAK256 PUSH1 0x0 SWAP2 POP SWAP1 POP DUP1 PUSH1 0x0 ADD PUSH1 0x0 SWAP1 SLOAD SWAP1 PUSH2 0x100 EXP SWAP1 DIV PUSH1 0xFF AND SWAP1 DUP1 PUSH1 0x0 ADD PUSH1 0x1 SWAP1 SLOAD SWAP1 PUSH2 0x100 EXP SWAP1 DIV PUSH1 0xFF AND SWAP1 POP DUP3 JUMP JUMPDEST PUSH2 0x9B9 PUSH2 0xA34 JUMP JUMPDEST PUSH1 0x0 PUSH20 0xFFFFFFFFFFFFFFFFFFFFFFFFFFFFFFFFFFFFFFFF AND DUP2 PUSH20 0xFFFFFFFFFFFFFFFFFFFFFFFFFFFFFFFFFFFFFFFF AND SUB PUSH2 0xA28 JUMPI PUSH1 0x40 MLOAD PUSH32 0x8C379A000000000000000000000000000000000000000000000000000000000 DUP2 MSTORE PUSH1 0x4 ADD PUSH2 0xA1F SWAP1 PUSH2 0xF23 JUMP JUMPDEST PUSH1 0x40 MLOAD DUP1 SWAP2 SUB SWAP1 REVERT JUMPDEST PUSH2 0xA31 DUP2 PUSH2 0xAB2 JUMP JUMPDEST POP JUMP JUMPDEST PUSH2 0xA3C PUSH2 0xB76 JUMP JUMPDEST PUSH20 0xFFFFFFFFFFFFFFFFFFFFFFFFFFFFFFFFFFFFFFFF AND PUSH2 0xA5A PUSH2 0x652 JUMP JUMPDEST PUSH20 0xFFFFFFFFFFFFFFFFFFFFFFFFFFFFFFFFFFFFFFFF AND EQ PUSH2 0xAB0 JUMPI PUSH1 0x40 MLOAD PUSH32 0x8C379A000000000000000000000000000000000000000000000000000000000 DUP2 MSTORE PUSH1 0x4 ADD PUSH2 0xAA7 SWAP1 PUSH2 0xF8F JUMP JUMPDEST PUSH1 0x40 MLOAD DUP1 SWAP2 SUB SWAP1 REVERT JUMPDEST JUMP JUMPDEST PUSH1 0x0 DUP1 PUSH1 0x0 SWAP1 SLOAD SWAP1 PUSH2 0x100 EXP SWAP1 DIV PUSH20 0xFFFFFFFFFFFFFFFFFFFFFFFFFFFFFFFFFFFFFFFF AND SWAP1 POP DUP2 PUSH1 0x0 DUP1 PUSH2 0x100 EXP DUP2 SLOAD DUP2 PUSH20 0xFFFFFFFFFFFFFFFFFFFFFFFFFFFFFFFFFFFFFFFF MUL NOT AND SWAP1 DUP4 PUSH20 0xFFFFFFFFFFFFFFFFFFFFFFFFFFFFFFFFFFFFFFFF AND MUL OR SWAP1 SSTORE POP DUP2 PUSH20 0xFFFFFFFFFFFFFFFFFFFFFFFFFFFFFFFFFFFFFFFF AND DUP2 PUSH20 0xFFFFFFFFFFFFFFFFFFFFFFFFFFFFFFFFFFFFFFFF AND PUSH32 0x8BE0079C531659141344CD1FD0A4F28419497F9722A3DAAFE3B4186F6B6457E0 PUSH1 0x40 MLOAD PUSH1 0x40 MLOAD DUP1 SWAP2 SUB SWAP1 LOG3 POP POP JUMP JUMPDEST PUSH1 0x0 CALLER SWAP1 POP SWAP1 JUMP JUMPDEST PUSH1 0x0 DUP1 REVERT JUMPDEST PUSH1 0x0 PUSH20 0xFFFFFFFFFFFFFFFFFFFFFFFFFFFFFFFFFFFFFFFF DUP3 AND SWAP1 POP SWAP2 SWAP1 POP JUMP JUMPDEST PUSH1 0x0 PUSH2 0xBAE DUP3 PUSH2 0xB83 JUMP JUMPDEST SWAP1 POP SWAP2 SWAP1 POP JUMP JUMPDEST PUSH2 0xBBE DUP2 PUSH2 0xBA3 JUMP JUMPDEST DUP2 EQ PUSH2 0xBC9 JUMPI PUSH1 0x0 DUP1 REVERT JUMPDEST POP JUMP JUMPDEST PUSH1 0x0 DUP2 CALLDATALOAD SWAP1 POP PUSH2 0xBDB DUP2 PUSH2 0xBB5 JUMP JUMPDEST SWAP3 SWAP2 POP POP JUMP JUMPDEST PUSH1 0x0 PUSH1 0x20 DUP3 DUP5 SUB SLT ISZERO PUSH2 0xBF7 JUMPI PUSH2 0xBF6 PUSH2 0xB7E JUMP JUMPDEST JUMPDEST PUSH1 0x0 PUSH2 0xC05 DUP5 DUP3 DUP6 ADD PUSH2 0xBCC JUMP JUMPDEST SWAP2 POP POP SWAP3 SWAP2 POP POP JUMP JUMPDEST PUSH2 0xC17 DUP2 PUSH2 0xBA3 JUMP JUMPDEST DUP3 MSTORE POP POP JUMP JUMPDEST PUSH1 0x0 PUSH1 0x20 DUP3 ADD SWAP1 POP PUSH2 0xC32 PUSH1 0x0 DUP4 ADD DUP5 PUSH2 0xC0E JUMP JUMPDEST SWAP3 SWAP2 POP POP JUMP JUMPDEST PUSH1 0x0 DUP2 ISZERO ISZERO SWAP1 POP SWAP2 SWAP1 POP JUMP JUMPDEST PUSH2 0xC4D DUP2 PUSH2 0xC38 JUMP JUMPDEST DUP3 MSTORE POP POP JUMP JUMPDEST PUSH1 0x0 PUSH1 0x20 DUP3 ADD SWAP1 POP PUSH2 0xC68 PUSH1 0x0 DUP4 ADD DUP5 PUSH2 0xC44 JUMP JUMPDEST SWAP3 SWAP2 POP POP JUMP JUMPDEST PUSH1 0x0 PUSH1 0x40 DUP3 ADD SWAP1 POP PUSH2 0xC83 PUSH1 0x0 DUP4 ADD DUP6 PUSH2 0xC44 JUMP JUMPDEST PUSH2 0xC90 PUSH1 0x20 DUP4 ADD DUP5 PUSH2 0xC44 JUMP JUMPDEST SWAP4 SWAP3 POP POP POP JUMP JUMPDEST PUSH2 0xCA0 DUP2 PUSH2 0xBA3 JUMP JUMPDEST DUP2 EQ PUSH2 0xCAB JUMPI PUSH1 0x0 DUP1 REVERT JUMPDEST POP JUMP JUMPDEST PUSH1 0x0 DUP2 CALLDATALOAD SWAP1 POP PUSH2 0xCBD DUP2 PUSH2 0xC97 JUMP JUMPDEST SWAP3 SWAP2 POP POP JUMP JUMPDEST PUSH1 0x0 PUSH1 0x20 DUP3 DUP5 SUB SLT ISZERO PUSH2 0xCD9 JUMPI PUSH2 0xCD8 PUSH2 0xB7E JUMP JUMPDEST JUMPDEST PUSH1 0x0 PUSH2 0xCE7 DUP5 DUP3 DUP6 ADD PUSH2 0xCAE JUMP JUMPDEST SWAP2 POP POP SWAP3 SWAP2 POP POP JUMP JUMPDEST PUSH1 0x0 DUP3 DUP3 MSTORE PUSH1 0x20 DUP3 ADD SWAP1 POP SWAP3 SWAP2 POP POP JUMP JUMPDEST PUSH32 0x4461746120536F75726365206973206E6F742072656769737465726564000000 PUSH1 0x0 DUP3 ADD MSTORE POP JUMP JUMPDEST PUSH1 0x0 PUSH2 0xD37 PUSH1 0x1D DUP4 PUSH2 0xCF0 JUMP JUMPDEST SWAP2 POP PUSH2 0xD42 DUP3 PUSH2 0xD01 JUMP JUMPDEST PUSH1 0x20 DUP3 ADD SWAP1 POP SWAP2 SWAP1 POP JUMP JUMPDEST PUSH1 0x0 PUSH1 0x20 DUP3 ADD SWAP1 POP DUP2 DUP2 SUB PUSH1 0x0 DUP4 ADD MSTORE PUSH2 0xD66 DUP2 PUSH2 0xD2A JUMP JUMPDEST SWAP1 POP SWAP2 SWAP1 POP JUMP JUMPDEST PUSH32 0x4461746120536F75726365206973206163746976650000000000000000000000 PUSH1 0x0 DUP3 ADD MSTORE POP JUMP JUMPDEST PUSH1 0x0 PUSH2 0xDA3 PUSH1 0x15 DUP4 PUSH2 0xCF0 JUMP JUMPDEST SWAP2 POP PUSH2 0xDAE DUP3 PUSH2 0xD6D JUMP JUMPDEST PUSH1 0x20 DUP3 ADD SWAP1 POP SWAP2 SWAP1 POP JUMP JUMPDEST PUSH1 0x0 PUSH1 0x20 DUP3 ADD SWAP1 POP DUP2 DUP2 SUB PUSH1 0x0 DUP4 ADD MSTORE PUSH2 0xDD2 DUP2 PUSH2 0xD96 JUMP JUMPDEST SWAP1 POP SWAP2 SWAP1 POP JUMP JUMPDEST PUSH32 0x4461746120536F7572636520616C726561647920726567697374657265640000 PUSH1 0x0 DUP3 ADD MSTORE POP JUMP JUMPDEST PUSH1 0x0 PUSH2 0xE0F PUSH1 0x1E DUP4 PUSH2 0xCF0 JUMP JUMPDEST SWAP2 POP PUSH2 0xE1A DUP3 PUSH2 0xDD9 JUMP JUMPDEST PUSH1 0x20 DUP3 ADD SWAP1 POP SWAP2 SWAP1 POP JUMP JUMPDEST PUSH1 0x0 PUSH1 0x20 DUP3 ADD SWAP1 POP DUP2 DUP2 SUB PUSH1 0x0 DUP4 ADD MSTORE PUSH2 0xE3E DUP2 PUSH2 0xE02 JUMP JUMPDEST SWAP1 POP SWAP2 SWAP1 POP JUMP JUMPDEST PUSH32 0x4461746120536F757263652069732073757370656E6465640000000000000000 PUSH1 0x0 DUP3 ADD MSTORE POP JUMP JUMPDEST PUSH1 0x0 PUSH2 0xE7B PUSH1 0x18 DUP4 PUSH2 0xCF0 JUMP JUMPDEST SWAP2 POP PUSH2 0xE86 DUP3 PUSH2 0xE45 JUMP JUMPDEST PUSH1 0x20 DUP3 ADD SWAP1 POP SWAP2 SWAP1 POP JUMP JUMPDEST PUSH1 0x0 PUSH1 0x20 DUP3 ADD SWAP1 POP DUP2 DUP2 SUB PUSH1 0x0 DUP4 ADD MSTORE PUSH2 0xEAA DUP2 PUSH2 0xE6E JUMP JUMPDEST SWAP1 POP SWAP2 SWAP1 POP JUMP JUMPDEST PUSH32 0x4F776E61626C653A206E6577206F776E657220697320746865207A65726F2061 PUSH1 0x0 DUP3 ADD MSTORE PUSH32 0x6464726573730000000000000000000000000000000000000000000000000000 PUSH1 0x20 DUP3 ADD MSTORE POP JUMP JUMPDEST PUSH1 0x0 PUSH2 0xF0D PUSH1 0x26 DUP4 PUSH2 0xCF0 JUMP JUMPDEST SWAP2 POP PUSH2 0xF18 DUP3 PUSH2 0xEB1 JUMP JUMPDEST PUSH1 0x40 DUP3 ADD SWAP1 POP SWAP2 SWAP1 POP JUMP JUMPDEST PUSH1 0x0 PUSH1 0x20 DUP3 ADD SWAP1 POP DUP2 DUP2 SUB PUSH1 0x0 DUP4 ADD MSTORE PUSH2 0xF3C DUP2 PUSH2 0xF00 JUMP JUMPDEST SWAP1 POP SWAP2 SWAP1 POP JUMP JUMPDEST PUSH32 0x4F776E61626C653A2063616C6C6572206973206E6F7420746865206F776E6572 PUSH1 0x0 DUP3 ADD MSTORE POP JUMP JUMPDEST PUSH1 0x0 PUSH2 0xF79 PUSH1 0x20 DUP4 PUSH2 0xCF0 JUMP JUMPDEST SWAP2 POP PUSH2 0xF84 DUP3 PUSH2 0xF43 JUMP JUMPDEST PUSH1 0x20 DUP3 ADD SWAP1 POP SWAP2 SWAP1 POP JUMP JUMPDEST PUSH1 0x0 PUSH1 0x20 DUP3 ADD SWAP1 POP DUP2 DUP2 SUB PUSH1 0x0 DUP4 ADD MSTORE PUSH2 0xFA8 DUP2 PUSH2 0xF6C JUMP JUMPDEST SWAP1 POP SWAP2 SWAP1 POP JUMP INVALID LOG2 PUSH5 0x6970667358 0x22 SLT KECCAK256 0xF7 CALL 0xE4 SLOAD NUMBER ADD DIV DUP8 DUP13 PUSH11 0x53C428632613526E009092 CALLVALUE 0x4E 0xB7 0x27 SLOAD MSTORE8 0xB3 SDIV RETURN SWAP12 SWAP13 PUSH5 0x736F6C6343 STOP ADDMOD GT STOP CALLER "},"methodIdentifiers":{"AuthorizedDevices(address)":"e34b1670","activateDevice(address)":"127157c3","isAuthorizedDevice(address)":"a6fe66de","owner()":"8da5cb5b","registerDevice(address)":"6dc7b9a5","removeDevice(address)":"1f7b6324","renounceOwnership()":"715018a6","suspendDevice(address)":"c9fd65c5","transferOwnership(address)":"f2fde38b"}}}}}